{
  "contractName": "Store",
  "abi": [
    {
      "inputs": [
        {
          "internalType": "uint256",
          "name": "",
          "type": "uint256"
        }
      ],
      "name": "cids",
      "outputs": [
        {
          "internalType": "string",
          "name": "",
          "type": "string"
        }
      ],
      "stateMutability": "view",
      "type": "function",
      "constant": true
    },
    {
      "inputs": [
        {
          "internalType": "string",
          "name": "_cid",
          "type": "string"
        }
      ],
      "name": "storeCid",
      "outputs": [],
      "stateMutability": "nonpayable",
      "type": "function"
    },
    {
      "inputs": [],
      "name": "getCidsLength",
      "outputs": [
        {
          "internalType": "uint256",
          "name": "",
          "type": "uint256"
        }
      ],
      "stateMutability": "view",
      "type": "function",
      "constant": true
    },
    {
      "inputs": [
        {
          "internalType": "uint256",
          "name": "index",
          "type": "uint256"
        }
      ],
      "name": "getCid",
      "outputs": [
        {
          "internalType": "string",
          "name": "",
          "type": "string"
        }
      ],
      "stateMutability": "view",
      "type": "function",
      "constant": true
    }
  ],
  "bytecode": "0x608060405234801561001057600080fd5b50610725806100206000396000f3fe608060405234801561001057600080fd5b506004361061004c5760003560e01c806312331854146100515780633beaa6ab1461006f578063520c36731461009f578063704fe710146100bb575b600080fd5b6100596100eb565b6040516100669190610553565b60405180910390f35b61008960048036038101906100849190610460565b6100f7565b6040516100969190610511565b60405180910390f35b6100b960048036038101906100b4919061041f565b610214565b005b6100d560048036038101906100d09190610460565b610253565b6040516100e29190610511565b60405180910390f35b60008080549050905090565b60606000805490508210610140576040517f08c379a000000000000000000000000000000000000000000000000000000000815260040161013790610533565b60405180910390fd5b6000828154811061017a577f4e487b7100000000000000000000000000000000000000000000000000000000600052603260045260246000fd5b90600052602060002001805461018f90610637565b80601f01602080910402602001604051908101604052809291908181526020018280546101bb90610637565b80156102085780601f106101dd57610100808354040283529160200191610208565b820191906000526020600020905b8154815290600101906020018083116101eb57829003601f168201915b50505050509050919050565b60008190806001815401808255809150506001900390600052602060002001600090919091909150908051906020019061024f9291906102ff565b5050565b6000818154811061026357600080fd5b90600052602060002001600091509050805461027e90610637565b80601f01602080910402602001604051908101604052809291908181526020018280546102aa90610637565b80156102f75780601f106102cc576101008083540402835291602001916102f7565b820191906000526020600020905b8154815290600101906020018083116102da57829003601f168201915b505050505081565b82805461030b90610637565b90600052602060002090601f01602090048101928261032d5760008555610374565b82601f1061034657805160ff1916838001178555610374565b82800160010185558215610374579182015b82811115610373578251825591602001919060010190610358565b5b5090506103819190610385565b5090565b5b8082111561039e576000816000905550600101610386565b5090565b60006103b56103b08461059f565b61056e565b9050828152602081018484840111156103cd57600080fd5b6103d88482856105f5565b509392505050565b600082601f8301126103f157600080fd5b81356104018482602086016103a2565b91505092915050565b600081359050610419816106d8565b92915050565b60006020828403121561043157600080fd5b600082013567ffffffffffffffff81111561044b57600080fd5b610457848285016103e0565b91505092915050565b60006020828403121561047257600080fd5b60006104808482850161040a565b91505092915050565b6000610494826105cf565b61049e81856105da565b93506104ae818560208601610604565b6104b7816106c7565b840191505092915050565b60006104cf6012836105da565b91507f496e646578206f7574206f662072616e676500000000000000000000000000006000830152602082019050919050565b61050b816105eb565b82525050565b6000602082019050818103600083015261052b8184610489565b905092915050565b6000602082019050818103600083015261054c816104c2565b9050919050565b60006020820190506105686000830184610502565b92915050565b6000604051905081810181811067ffffffffffffffff8211171561059557610594610698565b5b8060405250919050565b600067ffffffffffffffff8211156105ba576105b9610698565b5b601f19601f8301169050602081019050919050565b600081519050919050565b600082825260208201905092915050565b6000819050919050565b82818337600083830152505050565b60005b83811015610622578082015181840152602081019050610607565b83811115610631576000848401525b50505050565b6000600282049050600182168061064f57607f821691505b6020821081141561066357610662610669565b5b50919050565b7f4e487b7100000000000000000000000000000000000000000000000000000000600052602260045260246000fd5b7f4e487b7100000000000000000000000000000000000000000000000000000000600052604160045260246000fd5b6000601f19601f8301169050919050565b6106e1816105eb565b81146106ec57600080fd5b5056fea26469706673582212205a3ce3a12ea9db50905fae35f4871d97d16988835c7e08e7acb7df1a21b92a3064736f6c63430008000033",
  "immutableReferences": {},
  "source": "\r\n// SPDX-License-Identifier: UNLICENSED\r\npragma solidity ^0.8.0;\r\n\r\ncontract Store {\r\n    string[] public cids;\r\n\r\n    function storeCid(string memory _cid) public {\r\n        cids.push(_cid);\r\n    }\r\n\r\n    function getCidsLength() public view returns (uint256) {\r\n    return cids.length;\r\n    }\r\n\r\n    function getCid(uint256 index) public view returns (string memory) {\r\n        require(index < cids.length, \"Index out of range\");\r\n        return cids[index];\r\n    }\r\n}",
  "sourcePath": "C:\\Users\\abdul\\Desktop\\Sharedfyp\\contracts\\con2.sol",
  "compiler": {
    "name": "solc",
    "version": "0.8.0+commit.c7dfd78e.Emscripten.clang"
  },
  "schemaVersion": "3.4.13",
  "updatedAt": "2023-05-11T16:21:49.692Z",
  "networkType": "ethereum",
  "devdoc": {
    "kind": "dev",
    "methods": {},
    "version": 1
  },
  "userdoc": {
    "kind": "user",
    "methods": {},
    "version": 1
  }
}